:020000040800F2
:100000005065002481030008F3580008E547000804
:10001000F15800087B0F0008017000080000000084
:10002000000000000000000000000000B9630008AC
:10003000E110000800000000FF5F0008BB6300083B
:100040009B0300089B0300089B0300089B03000818
:100050009B0300089B0300089B0300089B03000808
:100060009B0300089B0300089B0300089B030008F8
:100070009B0300089B0300089B0300089B030008E8
:100080009B0300089B0300089B0300089B030008D8
:100090009B0300089B0300089B0300089B030008C8
:1000A0009B0300089B0300089B0300089B030008B8
:1000B0009B0300089B0300089B0300089B030008A8
:1000C0009B0300089B0300089B0300089B03000898
:1000D0009B0300089B0300089B0300089B03000888
:1000E0009B0300089B030008000000009B0300081E
:1000F0009B0300089B0300089B0300089B03000868
:100100009B0300089B0300089B0300089B03000857
:100110009B0300089B0300089B0300089B03000847
:100120009B0300089B0300089B0300089B03000837
:100130009B0300089B0300089B0300089B03000827
:100140009B0300089B030008000000000000000063
:100150009B0300089B0300089B0300089B03000807
:100160009B0300089B0300089B0300089B030008F7
:100170009B0300089B0300089B030008000000008D
:100180009B0300089B0300089B0300089B030008D7
:100190009B0300089B0300089B0300089B030008C7
:1001A0009B0300089B0300089B0300089B030008B7
:1001B0009B0300089B0300089B0300089B030008A7
:1001C0009B0300089B0300089B0300089B03000897
:1001D0009B0300089B0300089B0300089B03000887
:1001E0009B0300089B0300089B0300089B03000877
:1001F0009B0300089B0300089B0300089B03000867
:100200009B0300089B0300089B0300089B03000856
:100210009B0300089B0300089B0300089B03000846
:100220009B0300089B0300089B0300088D10000837
:100230009B0300089B0300089B0300089B03000826
:100240009B0300089B0300089B0300089B03000816
:100250009B0300089B0300089B0300089B03000806
:100260009B0300089B0300089B0300089B030008F6
:100270009B0300089B0300089B0300089B030008E6
:100280009B0300089B0300089B030008000000007C
:100290009B0300089B03000800F002F800F060F8E0
:1002A0000AA090E8000C82448344AAF10107DA45D1
:1002B00001D100F055F8AFF2090EBAE80F0013F0C3
:1002C000010F18BFFB1A43F0010318472044010037
:1002D000404401000A444FF0000C10F8013B13F0B9
:1002E000070408BF10F8014B1D1108BF10F8015B8F
:1002F000641E05D010F8016B641E01F8016BF9D182
:1003000013F0080F1EBF10F8014BAD1C0C1B09D1D8
:100310006D1E58BF01F801CBFAD505E014F8016B4A
:1003200001F8016B6D1EF9D59142D6D370470000DC
:100330000023002400250026103A28BF78C1FBD8EE
:10034000520728BF30C148BF0B6070471FB509F086
:10035000FDF89DE8030000F0A5F91FBD10B510BD24
:1003600000F0FCF91146FFF7F1FF08F0B5FC00F0D2
:100370001AFA03B4FFF7F2FF03BC00F04BFA0000D7
:100380000948804709480047FEE7FEE7FEE7FEE729
:10039000FEE7FEE7FEE7FEE7FEE7FEE70448054965
:1003A000054A064B70470000656400089902000882
:1003B0005055002450650024505D0024505D0024F9
:1003C00070B5064600F052F9056806F10B0020F002
:1003D0000704B4429CBF002070BD2B466A68BAB1C6
:1003E0001068A04210D304F1080188423CBF506855
:1003F000586007D35168101941601168091B0160EA
:1004000058601460101D70BD13465268002AE7D171
:100410002146284600F032F90028DED170BD70B5C3
:100420000446051F00F022F90068002C14BF446840
:1004300070BD002C18BFAC423CBF20466468F8D3A6
:1004400001680A18AA4218BF456003D12A68054608
:100450001144016028684119A1421CBF6C6070BD45
:100460006168696021680844286070BD53EA020C25
:1004700000F069802DE9F04B4FF00006002B1FBF04
:10048000B3FA83F503FA05F424FA05F65E4012BFC9
:100490001643B2FA82F502FA05F4C5F120051EBF33
:1004A00022FA05FC44EA0C04203556EA044C4FEAD3
:1004B000144418BF641C4FF000084FF0000990422C
:1004C00071EB030C39D3002919BFB1FA81F701FA96
:1004D00007F6B0FA80F700FA07F6C7F120071EBF4B
:1004E00020FA07FC46EA0C062037B6FBF4FCA7EB23
:1004F0000507103F07F01F0BCBF120060CFA0BFB92
:100500002CFA06F644BFB3460026202FA4BF5E4651
:100510004FF0000B5BEA060C08BF4FF0010B19EB24
:100520000B09ABFB027C48EB0608C01B06FB02CCA8
:100530000BFB03CC71EB0C01C1E70B4602464146B5
:100540004846BDE8F08B13B54FF000004FF00001B6
:10055000AFF30080BDE81C40704740EA010310B5CE
:100560009B070FD1042A0DD310C808C9121F9C4243
:10057000F8D020BA19BA884201D9012010BD4FF035
:10058000FF3010BD1AB1D30703D0521C07E0002082
:1005900010BD10F8013B11F8014B1B1B07D110F8DF
:1005A000013B11F8014B1B1B01D1921EF1D11846E2
:1005B00010BD10B5203AC0F00B80B1E81850203AB9
:1005C000A0E81850B1E81850A0E81850BFF4F5AFF3
:1005D0005FEA027C24BFB1E81850A0E8185044BF7D
:1005E00018C918C0BDE810405FEA827C24BF51F8EA
:1005F000043B40F8043B08BF7047D20728BF31F8DE
:10060000023B48BF11F8012B28BF20F8023B48BF2E
:1006100000F8012B70474FF0000200B513469446D6
:100620009646203922BFA0E80C50A0E80C50B1F14A
:100630002001BFF4F7AF090728BFA0E80C5048BF5E
:100640000CC05DF804EB890028BF40F8042B08BFFC
:10065000704748BF20F8022B11F0804F18BF00F8F8
:10066000012B704770477047704700000048704783
:10067000F8540024704770477047704738B50446F7
:100680000A4600206946AFF30080002808BF38BD45
:1006900002460099204600F03FF8012038BD0120B5
:1006A00000F054B8F8B5AFF30080054600200C46C2
:1006B000102000BF0646A819A0420DD9324669464F
:1006C0000020AFF30080070008BF00F03FF800985B
:1006D000A04218BF0546C419FFF7C8FF05600746CA
:1006E000F01D20F007004619284600F00AF8B44231
:1006F00008BFF8BDA21B31463868BDE8F84000F0DD
:100700000BB800210160C0E901107047102070474C
:1007100000487047F0540024034640688C46002887
:1007200018BF88423CBF03464068F8D31868184495
:10073000884207D00CF1030020F00700001D411A89
:10074000521A0146081D0A60FFF769BE10B500F095
:1007500039F8BDE8104000F02FB870477546FFF734
:10076000D7FFAE4605006946534620F00700854690
:1007700018B020B5FFF712FEBDE820404FF000068C
:100780004FF000074FF000084FF0000B21F0070179
:10079000AC46ACE8C009ACE8C009ACE8C009ACE8BC
:1007A000C0098D46704710B50446AFF3008020465F
:1007B000BDE81040FFF7DDBD002801D000F02AB8E9
:1007C0007047000010B5012805D0002103A000F0FB
:1007D00027F8012010BD09A1F8E70000534947524E
:1007E000544D454D3A204F7574206F662068656101
:1007F00070206D656D6F7279000000003A204865C9
:100800006170206D656D6F727920636F72727570A3
:100810007465640001491820ABBEFEE726000200A3
:1008200070B505460C460A2000E06D1C00F011F87A
:1008300035B128780028F8D102E0641C00F009F8EE
:1008400014B120780028F8D1BDE870400A20AFF339
:10085000008008B569468DF800000320ABBE08BDD6
:1008600010B5094C0948E168486000F54460226908
:100870005060206807F074FB012804D0206807F05E
:1008800041FB72B6FEE710BD90070024800A0024E9
:1008900001F07ABE0F4970B500240868401E086058
:1008A00015D10D4D4FF48051284601F093FC4FF4C3
:1008B0000051284601F08EFC0848016821F08001B3
:1008C0000160074801F0D6FE08B16FF0070420462A
:1008D00070BD000054080024000C0258F444025873
:1008E00024510024114A10480E4910B5116000240B
:1008F0000168A1B901210160104601F0D7FE70B96D
:100900000A4803F071FF03F0A7FA094904F0D8F888
:100910000146064804F068FF08B16FF0070420465E
:1009200010BD0000001C005854080024245100246D
:10093000A086010008B500931346012203F098FF3A
:10094000002806D0054801F0AFFE042802D06FF061
:10095000030008BD6FF0650008BD000024510024AD
:1009600008B500931346012203F096FF002806D035
:10097000054801F099FE042802D06FF0030008BD7D
:100980006FF0650008BD000024510024704700008E
:100990002DE9FF4F83B03B481D7B1C7D039E2D043A
:1009A00093F81890240493F81780C6EBC60C1E7FAA
:1009B000E34650F82C7000EB8B0A587FDFF8C4C078
:1009C00007FB021706EB0020DE7A997AACF1A80C3F
:1009D000DAF8082001EB062102EB820606EBC206DC
:1009E0005A7B0CEB8606DAF810C005EB02659A7CA0
:1009F00001EB050ED97C5D7DF66D02EB0122997D40
:100A000004EB05645D7E14444FEA094201EB0828BB
:100A100002EB056507FB0C6900220292A0F12001A0
:100A2000082908EB050601D2002506E0A0F1100117
:100A3000082901D2022500E00125711E03EB0E02F8
:100A40006143C0080190002701FB0020804612E0AE
:100A500023464A4601460398009504F033FC0948B2
:100A60007F1CDAF8102050F82B1001FB0299019935
:100A700004FB11808046B742EAD3029807B0BDE874
:100A8000F08F0000EC5200242DE9FC411C46134677
:100A9000134AC0EBC0050F19DDF820E002EB850614
:100AA00052F82520B56897420D4F02FB031305EB62
:100AB000850C36690CEBC505A7F1A80707EB850582
:100AC000ED6D06FB035500D9541A00212246CDE9ED
:100AD000001E0123294604F037FC0020BDE8FC81FC
:100AE000EC5200242DE9FC41144DC0EBC007DFF8A7
:100AF0004CC005EB8704DDF820E0ACF1A80C55F8FC
:100B00002750A66805FB021106EB860707EBC60710
:100B1000266964680CEB870702EB030CA445FF6DA4
:100B200006FB017100D9A31A6D1E0122CDE9005EFA
:100B300004F00AFC0020BDE8FC810000EC52002417
:100B40002DE9FF4F8B46154900261C460098DDE92C
:100B50000D7AC0EBC00001EB800918E00298002577
:100B600000EB060810E0A1782088E27861F31F40CE
:100B700040EA026300980BEB0501424600F0C8F81A
:100B8000D9F810006D1C0444BD42ECD3761C5645C8
:100B9000E4D304B00020BDE8F08F0000EC52002444
:100BA0002DE9FC41114EC0EBC0051C4606EB850348
:100BB000DDE9087C56F82550A83ED3F808E01B690B
:100BC00005FB02110EEB8E0202EBCE022D1B06EB93
:100BD0008202D26D03FB0121CDE9005C3B46224637
:100BE00004F0B2FB0020BDE8FC810000EC520024C0
:100BF00000284FF0000001D0801E7047014AD268E3
:100C00000A607047EC52002400284FF0000001D029
:100C1000801E7047044A1268526C002AF9D0034AB9
:100C200012680A60704700005C080024EC5200243F
:100C300000284FF0000001D0801E7047044A12685F
:100C4000926C002AF9D0034A52680A60704700008B
:100C50005C080024EC52002470B50F4DC0EBC000BE
:100C60000D4EA5F1A80405EB800556F82000AD68EF
:100C700002FB001005EB850606EBC50104EB8101C4
:100C80008A6CC96D22B131F810001860002070BD67
:100C900051F82000F9E70000EC520024144810B588
:100CA00086B0016841F04001016000680322114CE8
:100CB000082100F0400005900120CDE90202CDE9B5
:100CC00000106946204601F03DFB00222046082125
:100CD00001F04EFC142001F06BFA0122204608219D
:100CE00001F046FC0A2001F063FA06B010BD0000D6
:100CF000E04402580018025800284FF0000001D0CC
:100D0000801E7047014A916070470000EC52002439
:100D100070B50E4DC0EBC0000C4EA5F1A80405EB5C
:100D2000800556F82000AD6802FB001005EB850633
:100D300006EBC50104EB81018A6CC96D1AB121F87B
:100D40001030002070BD41F82030FAE7EC5200244A
:100D5000F0B504461248002587B0016841F480715F
:100D60000160006803220F4E00F480700E4F059062
:100D7000012056F82410CDE90010CDE9020257F801
:100D80002400694601F0DEFA36F82410012257F8F3
:100D9000240089B201F0ECFB07B02846F0BD00004A
:100DA000E0440258401C0108080800247047000075
:100DB00070B510B16FF0010070BD124805F048FA2F
:100DC000104804F031FD10B14FF0FF3070BD0D48F8
:100DD0000021082240F20364F838302596010323ED
:100DE000C0E90241C0E90415C0E90616C0E90023C4
:100DF0000146F83004F054F80028E7D06FF0040002
:100E000070BD00000054002470470000FEB50C4681
:100E10004FF0000508B1AD1E48E02748694600685C
:100E200002692548001D00689047002802DA6FF02B
:100E300004053BE0214A0020009999B39368DDE95D
:100E400001101E0701D5014601989E0702D51669BB
:100E5000711A491E5B0702D55369181A401E1368A0
:100E600016694B43B3FBF6F161605368566943431F
:100E7000B3FBF6F3A360009820609069814201D92A
:100E80000E1A00E0461A176ABB4201D9DB1B00E0CC
:100E9000FB1AD768B74201D39F4204D29161A06880
:100EA000106203E004E06060106AA0602846FEBDA6
:100EB00020609069F7E7000064080024345400249F
:100EC000FEB507000C464FF000060FD1216869B14E
:100ED000B1F5487F0AD8606840B1B0F5F07F05D819
:100EE000814200D80846E168884202D26FF00106CC
:100EF00037E0384600F008FB10B14FF0FF3630E025
:100F0000194D69462068286060686860A068A8601C
:100F1000E068E86015480068C2691448001D006870
:100F20009047002802DA6FF004061AE00198286161
:100F30000298686107EB870005EBC0025FF00000D4
:100F4000E568236802EB80012B4403F101038B6108
:100F5000401CE568022863682B4403F101030B621F
:100F6000EED33046FEBD0000345400246408002453
:100F7000002010B5FFF71AFF10BDFEE7F0B5059C85
:100F800044EA034503685C6C04F040442C435C6411
:100F90000368DA634268B2F5403F05D00068B2F5F5
:100FA000802F37D0C160F0BD01F47F42856801F425
:100FB0007F04224301F07F4301F47F0701F47F4661
:100FC000CCB2BDB1012D16D001F47F02C1F3C40132
:100FD000D20C022D11D0032D14D0310B3A0D090182
:100FE0001B0F41EA0222210942EA03320A43006848
:100FF0008263F0BD1A432243F9E7B30A5B0143EA77
:10100000C222F3E7F40ADB0F640144EA822242EAD7
:10101000C332EBE74161F0BD10B542EA811141EA0C
:101020000321029C41EA0441C16610BD3EB506257C
:1010300000240095CDE901120146044800F0FCFFB0
:1010400008B16FF0070420463EBD0000C0510024E7
:101050007CB5012B4FF000046FF0070508D8D25C77
:101060000B46014608480092152201F06DF806E093
:10107000CDE9001239220146034800F079FF00B1A2
:101080002C4620467CBD0000C0510024014800F0E1
:10109000F5BD0000C05100242DE9F04798461646E2
:1010A00089460446DDF820A001F06EFA4FF47A7705
:1010B000054607E001F068FA401BB84202D9032058
:1010C000BDE8F0872068406FC007F3D0226846EA89
:1010D000891141EA082141EA0A40D0660020EFE781
:1010E000704700002DE9F74FDFF800A10025A6B0FA
:1010F0000DF1640BDAF80C100AEB4110806884885B
:10110000C788E01D814620F00700061B68E000BF8D
:101110004FEAD9012898012901FB050015D00229C1
:1011200015D0017842788378080440EA02201843F9
:10113000DAF80C200AEB4212D16902294FF00001C3
:1011400008D001230DF1040E3EE00078F0E700889E
:1011500040BAEDE74FF0010E1AE000BFA4EB010C1E
:10116000B444ACF1010C0EFA0CF3034201D0136845
:1011700000E05368C3F30728C3F3C40C4FEA980890
:10118000DB0C4CEA481C4CEAC32C2BF811C0491C60
:10119000A142E3D3279919AA2346CDF800E0481CC1
:1011A000279019E0A4EB010CB444ACF1010C03FA54
:1011B0000CFC1CEA000F02D0D2F8008001E0D2F84B
:1011C00004804EF82180491CA142EBD32799724636
:1011D00000932346481C2790269805F06BFE6D1C53
:1011E000BD4295D329B0BDE8F08F0000845400249F
:1011F00072B6FEE7F0B5D1E90843CD690A68C2B11D
:101200000268254322F4F84213431D430560D1E9E7
:101210000125D1E903364C692A434568334389697E
:101220001A43EB0B2243DB030A431A4342600020BC
:10123000F0BDD1E9012ED1E9036CD1E9057142EA93
:101240000E0246EA0C0632433A430A4301682A4337
:1012500022431A436FF30E010A430260E7E7426933
:1012600043F6FE739A4342EA410141610020704710
:1012700070B591E81C00C9686FF01F0506691A4334
:1012800005EB441444EA41210A4306EA45431A4364
:101290000261002070BD00002DE9F04F8B8A6FF0D5
:1012A0000F05264C4FF07F4BD1F80C9004EB035305
:1012B0006FF0FF044FEA042A1AB386684FEA093236
:1012C0001F4FA2F580521A433E4032438260D1E95B
:1012D00000278E68521E05EB07150F8A2A43C56842
:1012E00004EB06240E7E0AEB074322431A430BEB62
:1012F00006610A4305F070431A43C2600020BDE84E
:10130000F08F91E804110F4E521E0F8A05EB08155D
:101310002A4304EB0C2C06EB09350E7E42EA0C0244
:101320002A4385680AEB074422431A430BEB066104
:101330000A4305F070431A438260DFE70000F0FFC4
:10134000FF0F0FFF00F0FFFF0020704790F8241000
:10135000012902D1002180F824100020704708B52F
:101360001830694607F096FC10B14FF0FF3008BD09
:101370009DF800000228FAD9002008BD002118308D
:1013800007F053BC0121183007F04FBC70B518307E
:101390000C460978064607F06DFC21790546304673
:1013A00007F056FC0544217A304607F05AFC054404
:1013B000217B304607F01EFC0544217C304607F0B7
:1013C00022FC0544217D304607F026FC401901D05F
:1013D0004FF0FF3070BD30B501250D704FF4F07245
:1013E00000244C7002238B704FF44870C1E9010255
:1013F000204630BD183007F021BCFEB500250C4654
:101400000646FFF7ACFF0C236A460321206006F175
:10141000180007F038FC08B16D1E39E09DF8001087
:101420009DF8010001F00F0140EA012060609DF885
:1014300002109DF8030001F00F0140EA0120E06076
:101440009DF800008009E0619DF8040060619DF84E
:101450000500000960629DF806109DF8070001F084
:101460000F0140EA0120A0609DF808109DF80900D6
:1014700001F00F0140EA012020619DF8060080097B
:1014800020629DF80A00A0619DF80B000009A0628F
:101490002846FEBDF8B500250C460646FFF75FFF5F
:1014A00004236A460321206006F1180007F0EBFBD5
:1014B00008B16D1E11E09DF800109DF8010001F0CB
:1014C0000F0140EA012060609DF802109DF80300C2
:1014D00001F00F0140EA0120A0602846F8BD00207D
:1014E000704710B590F824100446002000290AD156
:1014F000206880472046FFF741FF012184F824102F
:10150000002800D0881E10BD2049F0B58DB00746D8
:10151000D1E90101002407AE6FF00405CDE9070110
:101520001B4800901B4801901B4804901B480390E7
:101530001B480590694636F82400ADF808001948A4
:1015400000F040F810B16FF007001AE0154806A946
:1015500000F02EF8A0B90698112802D06FF006000E
:101560000FE0104809A9FFF736FF0F490D480A1F81
:1015700041F827000D49116009688847002803D009
:101580002846641C022CD5D30DB0F0BDFC1C01080C
:10159000E5080008950800083509000861090008F9
:1015A000910800085C54002468080024B80700244F
:1015B00038B518300C46694607F010FB9DF800104E
:1015C000216038BD4FF0FF3210B598B10B68036051
:1015D0004C6844600C890481CC68C4600C69046167
:1015E000496941610449C1610449816100620BB1EB
:1015F00098470246104610BD41620008037000087B
:10160000F0B50446C8074FF0000010D01E23012695
:1016100003F01F0706FA07F50D4201D15B1EF7D252
:101620007AB1082A0BD0102A06D0182A01D001203E
:10163000F0BD072BFBD204E0082BF8D201E0102B01
:10164000F5D22368596121688B6823F0180313438E
:101650008B60F0BD10B5040010D0607F20B9002071
:101660002077204600F032F821790220607739B1E6
:10167000D4E902122046FFF7C3FF48B1012010BD94
:101680002168114848612068816821F01801816053
:101690006079A0B12168206908610122206863692E
:1016A000816821F06001194381602068A369816825
:1016B00021F08001194381606277002010BD21680C
:1016C0004FF0FF30E8E70000B71DC10408B500681F
:1016D0000649884208D10648016841F400210160AA
:1016E000006800F40020009008BD0000004C025883
:1016F000E0440258F0B590F86020012A22D0C1EBF6
:10170000C102012780F86070022380F8613000EB8D
:101710008202284D138F168EB2F83CC0D46A1B0586
:10172000283244EA064643EA4C530A2C46EA0306AA
:101730000AD0092C08D0137B46EA036349B10B2C6D
:101740001AD01DE00220F0BDD36803F07F4333437D
:10175000F4E701684C6AAC431C434C6201681368AF
:101760008B6151680A2901D009291BD1D16802680F
:1017700021F07F41916215E0118B0F4D43EA8143C7
:101780000168CC69AC431C43CC61016813680B61F0
:1017900051680A2901D0092904D1D168026821F0D1
:1017A0007F411162002180F8617080F86010084666
:1017B000F0BD00000F0033FF0F003FFF2DE9F041A7
:1017C000040004D094F86100002518B107E001205E
:1017D000BDE8F081204684F8605000F033F8184EE0
:1017E000022084F861000123D4E90010D4F81CC061
:1017F00040F207120F6840EA0C0037403843086097
:101800002068A769A168466B394396433143416319
:101810002068E268016C6FF30F01114301642068D6
:10182000218AA28A466B090541EA425126F44012F8
:1018300011434163656684F861300020C8E7000009
:10184000BFFFF8FF70472DE9F84300260446042740
:101850000D4600964FF0030800680068C00726D0C8
:1018600000F092FE81461EE04068009010F0210FCB
:1018700010D00098800603D5606E40F002006066CC
:101880000098C00703D0606E40F0010060662168D8
:10189000212035E0681C06D000F076FEA0EB0900A0
:1018A000A8424DD8A5B3206841688907DCD52068D7
:1018B000C169406A01F0200100F02000084335D0E2
:1018C00000F062FE81462DE04068009010F0290F84
:1018D0001FD00098000703D5606E40F004006066DA
:1018E0000098800603D5606E40F0020060660098A4
:1018F000C00703D0606E40F00100606621682920B7
:10190000886084F86170012084F86060BDE8F88325
:1019100016E0681C06D000F037FEA0EB0900A842D4
:101920000ED86DB120684168C906CDD52268122154
:101930000120916084F86100002084F86060E5E790
:10194000616E84F8606041F02001616684F8618016
:101950000320DBE7F8B50446069894F86050012DA3
:1019600010D0012684F86060022584F86150009050
:101970002046FFF703FB2068016841F00101016088
:101980000020F8BD0220F8BDF0B5027C012A7DD010
:101990000122027402680024536B43F00103536375
:1019A0000268D2F8003423F00103C2F80034026860
:1019B000D2F8003443F00103C2F800340268D3685F
:1019C00023F00303D36002680D68D3682B43D36010
:1019D0000268536923F0070353610368D1E906568F
:1019E0004F695A693D4332432A435A610268136979
:1019F00023F00F03136102684D6813692B431361D1
:101A00000268D2F8003423F00E03C2F800340268F2
:101A10004B68D2F8005445EA4303C2F80034026828
:101A2000536E6FF30F03536602688D68536E2B433A
:101A300053660268D2F8003423F0F003C2F8003491
:101A40000368D1E90327D1E908653A433543D3F860
:101A500000642A433243C3F800240268936E23F0E3
:101A60000103936602688B6A916E1943916601685F
:101A7000D1F8082442F00102C1F808240168D1F825
:101A8000082442F00202C1F8082400E002E00474D5
:101A90000020F0BD0220F0BDF0B5027C012A30D05C
:101AA0000122027402684FF0000E174C936E23401F
:101AB000936691E89400D1E9036C2243374301F126
:101AC00014033A4342EA0C0293E8F8101A430368FD
:101AD0002243CC6A2A4332439D6E3A4342EA0C02C7
:101AE00022432A439A660268936E23F002039366A8
:101AF00002680B6B916E1943916680F810E000202C
:101B0000F0BD0220F0BD0000FF80F0FE10B5027CA9
:101B1000012A0ED00122027402680024D36A23F045
:101B20001F03D3620268D36A0B43D3620474204656
:101B300010BD022010BDF0B5027C012A3BD001226D
:101B40000274D1E90023934200D91A4603680024A5
:101B500042EA0245D3F8982002F0FC22C3F898200C
:101B60000268D2F898302B43C2F898300268D2F855
:101B70009C3003F40043C2F89C3003688D890F7ACF
:101B80000E6953F89C2F2D04324345EA07652A431A
:101B90001A600268D2F8A43023F47F43C2F8A4305C
:101BA00002684969D2F8A43043EA0121C2F8A410BE
:101BB00004740020F0BD0220F0BD38B504003FD011
:101BC0000320607420680025D0F8041421F0080177
:101BD000C0F804142068D0F8041401F00801009142
:101BE000416821F0010141602068416801F0010174
:101BF0000091D0F8A01021F00601C0F8A0102068D4
:101C0000D0F8301421F00101C0F830142068D0F869
:101C1000301401F001010091D0F8301421F08071EE
:101C2000C0F830142068D0F8300400F080700090C4
:101C3000204600F0FFF9656165740020257438BD09
:101C4000012038BD7047704710B5027C012A13D0BF
:101C50000122027402680023D2F81C4424F4800498
:101C6000C2F81C440268D2F81C4444EA8151C2F80C
:101C70001C140374184610BD022010BD10B5044694
:101C80000068D0F80C14C90709D0D0F80814C907A7
:101C900005D00121C0F81014204600F088FA206811
:101CA000D0F80C14890709D5D0F80814890705D590
:101CB0000221C0F810142046FFF7C4FFA0690028D5
:101CC00051D02068D0F8BC30D0F8C410D0F8C02073
:101CD000D0F8C80019400B0400EA02001B0C03D026
:101CE000626942F00102626111F4F81F03D0616978
:101CF00041F002016161C10703D0616941F0040153
:101D00006161810703D5616941F00801616110F0EB
:101D10000C0F03D0616941F010016161C10603D568
:101D2000616941F020016161810603D5616941F07B
:101D300040016161410603D5616941F08001616143
:101D4000010603D5616941F48071616110F4F85FA7
:101D500003D0606940F4007060616069002802D0BF
:101D60002046FFF770FF10BD2DE9F84304000D4633
:101D700002D0607C18B105E00120BDE8F883204660
:101D800000F059F90320607420684FF00009D0F882
:101D9000301441F08071C0F830142068D0F830045D
:101DA00000F08070009000F0EFFB4FF47A77064669
:101DB00005E000BF00F0E8FB801BB84235D8206882
:101DC000D0F80C04C004F5D52068674AD0F8301468
:101DD0001140C0F830142068D5E900212B89D0F8D3
:101DE00030644FEAC12C46EA82014CEA03421143B7
:101DF000C0F830142068D0F8301441F00101C0F868
:101E000030142068D0F8300400F001000090012068
:101E100000F0CEF900F0B8FB0646B84607E000BF78
:101E200000F0B2FB801B404501D90320A5E72068E4
:101E3000D0F80C04C005F3D520684E46416841F047
:101E4000010141602068416801F001010091816851
:101E500021F0FF0181602068A268816811438160E0
:101E60002068D0F8A01041F00201C0F8A01020684E
:101E7000D0F8A01041F00401C0F8A0102068D0F8FC
:101E8000A41021F00301C0F8A4102068E268D0F883
:101E9000A4101143C0F8A41000F076FB0746206898
:101EA000D0F8A400800715D0C1464FF094082168EF
:101EB000D1F8B01038EA010014D000F065FBC01B67
:101EC0004845F4D92674B0E700F05EFBC01B4045DE
:101ED00002D9F7E74FF014092168D1F8B01039EAB8
:101EE0000100F1D1686800B90120204F22682B7AE7
:101EF00029687843D2F8185446F2A81703F0030370
:101F0000794325F03F05C2F818549840B0FBF1F032
:101F10002268D2F818140143C2F818142068C0F8D7
:101F2000C4602068C0F8C860A6612068416821F0DC
:101F3000010141602068416801F001010091D0F881
:101F40009410012221F00301C0F89410D4E9000399
:101F5000D0F89410194341F00101C0F89410666163
:101F60006274002009E700000386FCFF00093D00C1
:101F70002DE9FF4F81B00446007C1D469346DDE904
:101F80000EA6012809D00120207400F0FDFA4FF4BC
:101F90007A7907464FF000080DE0022005B0BDE851
:101FA000F08F00BF00F0F0FAC01B484503D90320B2
:101FB00084F81080F2E72068406FC007F2D0032D4C
:101FC000504602D200212B4608E0032300210827B7
:101FD00007EBC107725CBA401043491C9942F6D323
:101FE0002168EA1A3344086714E0042A01D216462D
:101FF00000E004260021084606E01F5C4FEAC00C02
:1020000007FA0CF73943401CB042F6D32068921B04
:1020100033440167002AE8D16D1C02995A46C5F382
:10202000072000902068EBB2FEF7F6FF002084F84E
:102030001080B3E7704770472DE9F84F0446007CE5
:102040008B461746DDE90A8ADDF8309001281D46E7
:102050000FD001204FF00006022D20740CD9C5F3DB
:102060000720009037222046EBB2FFF715F890BB0F
:1020700002E00220BDE8F88FB8F1060F09D0B8F1F0
:10208000040F0AD0B8F1140F0BD0B8F1240F0AD006
:1020900040E00096534620680BE00096002320683D
:1020A00007E0009602E099F80100009099F80030EE
:1020B000206842465946FEF7AFFF00F065FA8046B9
:1020C0002BE02068416FC90612D4026F042D03D2A1
:1020D00000202B460AE01DE0042300204FEAC00C3C
:1020E00022FA0CF1401C6D1E07F8011B9842F5D333
:1020F00000F04AFAA0EB0800B0F57A7F02D903207D
:102100002674B7E72068416F490606D4D0F8C000AE
:10211000800602D501202674ACE7002DD1DC00201A
:102120002674A7E7017C01290CD001210174016804
:102130000022D1F8043443F00403C1F804340274DB
:10214000104670470220704738B504460498257C35
:10215000012D08D00125257400902046FEF79CFF34
:102160000021217438BD022038BD08B5017C012949
:102170001BD001210174016800224B6843F0010368
:102180004B6001684B6803F001030093D1F80434FD
:1021900043F00803C1F804340168D1F8041401F0D5
:1021A000080100910274002008BD022008BD70479C
:1021B00070B5044600F0E8F90546601C02D00448FA
:1021C0000078044400F0E0F9401BA042FAD370BD4F
:1021D000A40700242DE9F04F4F4D00224FF0010AD3
:1021E0004FF00F0B92E000BF0AFA02F919EA01035F
:1021F0007ED022F0030606F1B0469407D6F808C454
:10220000270FDFF818810BFA07FE40450EEA0C0491
:1022100002D14FF0000C40E0DFF804C1604502D16C
:102220004FF0010C39E0DFF8FCC0604502D14FF0FF
:10223000020C32E0DFF8F0C0604502D14FF0030C31
:102240002BE0DFF8E8C0604502D14FF0040C24E039
:10225000DFF8DCC0604502D14FF0050C1DE0DFF86F
:10226000D4C0604502D14FF0060C16E0DFF8C8C0BC
:10227000604502D14FF0070C0FE0DFF8C0C06045A9
:1022800002D14FF0080C08E0DFF8B4C0604502D17D
:102290004FF0090C01E04FF00A0C0CFA07FCA445C2
:1022A00013D12C689C432C606F684FF0B0449F435F
:1022B0006F6067689F43676027689F432760D6F811
:1022C000084424EA0E04C6F8084407680323D40827
:1022D0004FEA42084FEA427C03FA08F34FEADC6C0B
:1022E0001F4307600BFA0CF600EB8404276A00E03A
:1022F0000BE0B7432762C4689C43C460446824EA87
:102300000904446084689C438460521C31FA02F3DF
:102310007FF46AAFBDE8F08F8000005800000258DB
:102320000004025800080258000C0258001002581D
:102330000014025800180258001C025800200258CD
:10234000002402582DE9F84F03247D4D00234FF05F
:1023500001094FF0B04B4FF00F0AE9E009FA03F71B
:102360003A4076D00E7906F00306012E01D0022EF7
:1023700018D1D0F808C04FEA430ECE6804FA0EF820
:102380002CEA080C06FA0EF646EA0C068660D0F82F
:1023900004C00E792CEA070CC6F300169E4046EAEC
:1023A0000C0646600E79F643B6070BD0C6684FEAB6
:1023B00043088F6804FA08FC26EA0C0607FA08F7B7
:1023C0003743C7600E7906F00306022E12D1DE08ED
:1023D0000F694FEA437C00EB8606B646366A4FEA41
:1023E000DC6C0AFA0CF807FA0CF726EA0806374301
:1023F000CEF820700F7906684FEA430807F003070C
:1024000004FA08FC07FA08F726EA0C0637430760C7
:102410004E6816F4403F1CD04A4E376847F002071A
:10242000376036689F0706F00206009623F0030621
:1024300006F1B046B6463F0FD6F80864DFF80881CB
:102440000AFA07FC404526EA0C0603D14FF0000CBF
:1024500041E06CE0DFF8F4C0604502D14FF0010CC0
:1024600039E0DFF8ECC0604502D14FF0020C32E0F9
:10247000DFF8E0C0604502D14FF0030C2BE0DFF83D
:10248000D8C0604502D14FF0040C24E0DFF8CCC086
:10249000604502D14FF0050C1DE0DFF8C4C0604577
:1024A00002D14FF0060C16E0DFF8B8C0604502D14B
:1024B0004FF0070C0FE0DFF8B0C0604502D14FF0DD
:1024C000080C08E0DFF8A4C0604502D14FF0090C09
:1024D00001E04FF00A0C0CFA07FC4CEA060CCEF8AF
:1024E00008C44F68DBF80060FF0226EA020600D548
:1024F00016435F46CBF80060D1F804C0DBF80460F7
:102500005FEA8C2C26EA020600D516437E606E68D0
:102510004F6826EA0206BF0300D516436E602E6898
:102520004F6826EA0206FF0300D516432E605B1CA7
:102530000A6832FA03F67FF411AFBDE8F88F0000A5
:1025400080000058F4440258000002580004025869
:1025500000080258000C02580010025800140258DB
:1025600000180258001C025800200258002402588B
:102570000AB1816170470904FBE700000148006867
:10258000000C70470010005C014880687047000034
:10259000A4070024054901EB80010548D1F8801407
:1025A000814201D10020704701207047006002582D
:1025B00000030080034A41F4407102EB8000C0F840
:1025C000001470470060025830B590F84120202A6E
:1025D00024D190F84020012A20D0012380F84030F7
:1025E000242280F84120202300240268156825F069
:1025F000010515600268156825F4805515600268AC
:1026000015680D43156001680A6842F001020A600E
:1026100080F8413080F84040002030BD022030BDBD
:1026200030B590F84120202A22D190F84020012A8C
:102630001ED0012380F84030242280F8412020243D
:1026400000250268136823F0010313600268136811
:1026500023F4706343EA0121116001680A6842F0C3
:1026600001020A6080F8414080F84050002030BDEF
:10267000022030BD10B5040014D0242084F841009D
:102680002068016821F001010160204600F0D0F9C6
:102690000020606484F84100206384F8420084F8DC
:1026A000400010BD012010BD406C704790F8410003
:1026B0007047000070B5040004D094F84100002574
:1026C00010B106E0012070BD204684F8405000F0B3
:1026D000B0F9242084F841002068016821F001014C
:1026E0000160D4E9001020F0706008612068816802
:1026F00021F400418160E06821680128A06830D0A1
:1027000040F404408860E0680228206841682BD0CB
:1027100021F40061416020682021154A4368134379
:1027200043602068C26822F40042C26054F8106B13
:102730000DCC104340EA0320F06054F81C3CD4E96F
:1027400000021043186054F81C0D026842F00102A8
:102750000260656484F84110256384F842500020CB
:1027600070BD40F40040CDE741F40061D2E70000C5
:10277000008000022DE9FF4F83B0044690F841002D
:102780009A469346DDE91087DDF84890202874D1F9
:102790005FEA080014D09FB194F8400001286CD083
:1027A000012084F84000FFF7EFFE012206461923BE
:1027B0000090D103204602F0C7FA002871D103E04F
:1027C0004FF4007060646CE00025C4F8248022217E
:1027D00084F84110402084F84200656467855346C0
:1027E00065635A4604992046CDE9009602F030FA16
:1027F00010B184F8405054E0618DFF2734484FF009
:102800008078FF294FF0007A04D927853A4643465D
:10281000009005E0618D53462185009094F82820B2
:102820002046049902F078FA00224B460421204603
:10283000009602F089FAA0BB2068616A406A0870BD
:10284000606A401C6062208D401E81B22185608DCF
:10285000401E6085608DD8B1D1B900224B468021E1
:102860002046009602F070FAD8B9608DFF2805D98D
:1028700027853A464346009506E026E0608D53469C
:102880002085009594F828202046049902F044FA07
:10289000608D0028C8D132464946204602F092FA9F
:1028A00018B1012007B0BDE8F08F21682020094A47
:1028B000C86121684B6813404B6084F8410084F87C
:1028C0004250002084F84050ECE70220EAE7000084
:1028D0000024008000E800FE2DE9FF4F83B004468D
:1028E00090F841009A469346DDE91087DDF848905C
:1028F000202871D15FEA080014D09FB194F84000FD
:10290000012869D0012084F84000FFF73DFE012234
:10291000064619230090D103204602F015FA00283C
:102920006ED103E04FF40070606469E00025C4F8E4
:102930002480212184F84110402084F842006564FD
:102940006785534665635A4604992046CDE900964B
:1029500002F0B0F910B184F8405051E0608DFF27CB
:102960004FF08078FF284FF0007A04D927853A4647
:102970004346009505E0608D53462085009594F808
:1029800028202046049902F0C7F9324649462046DD
:1029900002F044FAA0BB606A216800788862606A2D
:1029A000401C6062608D401E6085208D401E80B29C
:1029B0002085618DD9B1D0B900224B4680212046B7
:1029C000009602F0C1F9D8B9608DFF2805D9278596
:1029D0003A464346009506E026E0608D5346208542
:1029E000009594F828202046049902F095F9608D0E
:1029F0000028CAD132464946204602F0E3F918B110
:102A0000012007B0BDE8F08F20682021074AC1618E
:102A1000206843681340436084F8411084F84250B2
:102A2000002084F84050ECE70220EAE700E800FECE
:102A3000704770470248816802781144816070478E
:102A4000A4070024032010B500F00AFA01F016FADA
:102A50000F4A104914681368C4F3032203F00F03EC
:102A60008A5CC95C02F01F0201F01F01D0400A4AD3
:102A700020FA01F1116009490860002000F010F807
:102A800008B1012010BD00F0AFF9002010BD00001A
:102A900018440258E01A0108B4070024B0070024C3
:102AA00070B50D4D04462878A0B14FF47A71B1FB92
:102AB000F0F00A490968B1FBF0F001F09BFD48B95C
:102AC000102C07D200222146501E00F0A9F9002048
:102AD0006C6070BD012070BDA4070024B007002405
:102AE0002DE9F041044690F8A00016460F46012853
:102AF0001DD0012584F8A050022084F8A10006EB27
:102B0000860000EBC600342204EB80003830FDF76D
:102B100050FD32463946204602F0A0FC21680020D4
:102B20004D6284F8A15084F8A000BDE8F081022035
:102B3000FBE770B5040016D02068D0F8841021F0AF
:102B40000101C0F884102068D0F8041121F00101BF
:102B5000C0F804112068416A41F002014162FFF7A8
:102B600013FD054606E0012070BDFFF70DFD401B7B
:102B7000642803D82068806C4007F6D520688169F6
:102B800021F001018161204600F084F80020C4F8A2
:102B9000A40084F8A10084F8A00070BD2DE9F041E4
:102BA000040004D094F8A100002518B107E001202A
:102BB000BDE8F081204684F8A05000F06CF834485D
:102BC000022184F8A110012202CC8B6923F070430A
:102BD0008B6194E84A001943E3681E4354F8043DAE
:102BE00031439E693143996121688B6803408B6052
:102BF0002168A68AA7698B683B4343EA06438B603A
:102C00002168CB680340CB602168A38B276ACE681C
:102C10003E4346EA0346CE6021680B6903400B61E0
:102C20002368A68CA76A1969394341EA06411961EC
:102C300021684B6903404B612068A38D266B416975
:102C4000314341EA03414161236894F8351094F817
:102C50003600DE6A000406F07F46DE62236840EA42
:102C6000012094F83460D96A31430143D962206865
:102C7000416B41F0060141632068816941F0010127
:102C80008161C4F8A45084F8A120002090E70000DE
:102C900000F800F07047704710B530B302680021AB
:102CA0001F23D46824F00104D4600268D160026854
:102CB000116102685161026891610268D161026824
:102CC00011620268516202689162026811630268CF
:102CD000516302685360C16501664166816680F890
:102CE0003D1080F83C10002010BD012010BD70B5D3
:102CF0000446FFF749FC06465CB1002584F83C50C9
:102D0000022084F83D002068C16821F00101C16003
:102D10000CE0012070BDFFF737FC801B052805D9AA
:102D20004021A166032084F83D00F2E72068C068D6
:102D3000C007F0D1204602F079FCE5650120256648
:102D40006566A56684F83D00002070BD154BF0B5A2
:102D5000083B427813491A600B680A1F23F00103ED
:102D60000B6043681360057BC67A827A437B2D072C
:102D7000847B45EA0665C77B90F809C0067A90F81F
:102D800000E045EAC24040EA834040EA444040EA6D
:102D9000074040EA0C2040EA460040EA0E00086086
:102DA000F0BD0000A0ED00E0BFF35F8F04480021FC
:102DB0000368034A23F48033036070321160704764
:102DC00024ED00E0074A40F001000649703210602F
:102DD000086840F480300860BFF34F8FBFF36F8FF7
:102DE0007047000024ED00E0054808B5016841F097
:102DF00002010160006800F00200009008BD0000C0
:102E0000F4440258002809DB410900F01F02890040
:102E1000012001F1E0219040C1F80001704700005D
:102E20000E4BF0B41B680D46C3F30223C3F1070633
:102E3000042E00D90426191D072901D2002300E021
:102E4000DB1E012404FA06F19C40491E2940641E41
:102E5000994014402143F0BC04F0DAB80CED00E0D6
:102E6000064900F0070210B54FF6FF040868044B4E
:102E7000204040EA02201843086010BD0CED00E03D
:102E80000000FA052DE9F0411E4C0546206800F0CF
:102E900007000628206804D000F03F00A84228D18F
:102EA0002EE020F03F0028432060FFF76DFB154F18
:102EB0004FF47A780646083F05E000BFFFF764FB51
:102EC000801B404515D83868C0438004F6D41E2DB9
:102ED00005D02E2D03D01D2D01D02D2D10D1FFF7A3
:102EE00053FB0546464607E0FFF74EFB401BB0424A
:102EF00002D90120BDE8F0812068C043C003F3D4AB
:102F00000020F7E70C48025810B500F071FF0549A2
:102F10000968054AC1F30211515C01F01F01C84064
:102F200010BD000020440258E01A0108494930B59C
:102F3000484C0B1D0A68143409681D68246802F0A7
:102F40000303C5F30012C1F30531C4F3CC04002917
:102F500014FB02F200EE102AF8EE400A75D03F4A48
:102F60009FED3D1AB7EE000A6BB1DFED3D1A012B64
:102F700001D0022B64D002EE101A1168F8EE422A3A
:102F800081EEA22A21E0334C283C23689B0612D50F
:102F9000344B246801EE901A1168C4F3C104F8EEB2
:102FA000612AE34001EE903AC1F30801F8EE611A9C
:102FB00081EEA22A0BE001EE901ADFED2B2A00BF72
:102FC000F8EE611A116882EEA12AC1F3080101EE40
:102FD000901A1168F8EE611A40EE811A71EE800ABB
:102FE00062EE200AC1F3462101EE101AB8EE411A32
:102FF00031EE001AC0EE811ABCEEE11A80ED001A23
:103000001168C1F3064101EE101AB8EE411A31EE13
:10301000001AC0EE811ABCEEE11A80ED011A1168A7
:10302000C1F3066101EE101AB8EE411A31EE000A42
:1030300080EE801ABCEEC10A80ED020A30BD04E0C9
:1030400001EE901ADFED092ABAE700210160416024
:103050008160F3E7284402580000003938440258E0
:103060000024744A0090D0030024744C20BCBE4B52
:10307000494930B5484C0B1D0A681C3409681D6865
:10308000246802F00303C5F30022C1F30551C4F321
:10309000CC04002914FB02F200EE102AF8EE400ADC
:1030A00075D03F4A9FED3D1AB7EE000A6BB1DFEDD8
:1030B0003D1A012B01D0022B64D002EE101A1168C8
:1030C000F8EE422A81EEA22A21E0334C283C236804
:1030D0009B0612D5344B246801EE901A1168C4F394
:1030E000C104F8EE612AE34001EE903AC1F3080111
:1030F000F8EE611A81EEA22A0BE001EE901ADFEDE4
:103100002B2A00BFF8EE611A116882EEA12AC1F3E2
:10311000080101EE901A1168F8EE611A40EE811A6A
:1031200071EE800A62EE200AC1F3462101EE101A08
:10313000B8EE411A31EE001AC0EE811ABCEEE11A67
:1031400080ED001A1168C1F3064101EE101AB8EEC5
:10315000411A31EE001AC0EE811ABCEEE11A80ED80
:10316000011A1168C1F3066101EE101AB8EE411A96
:1031700031EE000A80EE801ABCEEC10A80ED020A30
:1031800030BD04E001EE901ADFED092ABAE7002114
:10319000016041608160F3E7284402580000003973
:1031A000404402580024744A0090D0030024744C18
:1031B00020BCBE4B2DE9FE4F0546DFF8E89350F8E2
:1031C000081B0024F74FC943009005F1280026464C
:1031D00009F12409019008011DD4E86E50B1B0F541
:1031E000801F0CD0B0F5001F0ED0B0F5401F1ED0D0
:1031F00001240FE0386840F40030386017E0009890
:10320000022102F0FDFE03E00198022102F088FF96
:1032100004000CD026462888C043C00523D4E86D9E
:1032200005281ED2DFE800F00C11161B1B00EA6E09
:10323000D9F8001021F440111143C9F80010EAE751
:10324000386840F40030386009E00098002102F04E
:10325000D7FE03E00198002102F062FF044674B13A
:1032600000E0012426462888C043800528D4286E23
:1032700080281ED00CDC90B140280ED114E0EA6DFD
:10328000D9F8001021F007011143C9F80010EAE74E
:10329000C02813D0B0F5807F10D001240FE038682B
:1032A00040F40030386009E00098002102F0A8FEE8
:1032B00003E00198002102F033FF04469CB126464A
:1032C0002888DFF8E082C04308F12C0840052CD4A0
:1032D000D5F8AC00B0F5800F20D00DDCA0B1B0F572
:1032E000001F0FD115E02A6ED9F8001021F4E0710B
:1032F0001143C9F80010E3E7B0F5C00F13D0B0F5E3
:10330000000F10D001240FE0386840F4003038601E
:1033100009E00098002102F073FE03E0019800210B
:1033200002F0FEFE04467CB126462888C043000514
:103330002DD4D5F8B000B0F1007F21D00EDCA8B1BB
:10334000B0F1807F10D116E0D5F8AC20D8F800108D
:1033500021F460011143C8F80010E6E7B0F1407FA6
:1033600013D0B0F1806F10D001240FE0386840F422
:103370000030386009E00098002102F041FE03E0CF
:103380000198002102F0CCFE044694B1264628683C
:10339000DFF810B2C0430BF1200B80011FD4E86CA2
:1033A000D8B110280FD0202812D0302815D00124F1
:1033B00014E0D5F8B020D8F8001021F0E0611143F6
:1033C000C8F80010E3E7386840F40030386004E0E3
:1033D0000098022102F014FE044674B126462888A3
:1033E000C043C0042BD4686EB0F5005F20D00DDC64
:1033F000A0B1B0F5805F0FD115E0EA6CDBF80010EA
:1034000021F030011143CBF80010E8E7B0F5405F40
:1034100013D0B0F5804F10D001240FE0386840F48D
:103420000030386009E00098002102F0E9FD03E077
:103430000198002102F074FE04468CB126462888CB
:10344000C043800429D4A86EB0F5403F23D010DCDF
:1034500008B3B0F5803F14D0B0F5003F0FD115E0B0
:103460006A6ED9F8001021F4E0411143C9F8001048
:10347000E5E7B0F5802F0ED0B0F5A02F0BD00124DA
:103480000AE00098012102F0BBFD03E00198012150
:1034900002F046FE044694B126462888C043400404
:1034A0002AD4D5F8B400B0F1405F23D010DC08B3C3
:1034B000B0F1805F14D0B0F1005F0FD115E0AA6EBB
:1034C000D9F8001021F4E0211143C9F80010E4E715
:1034D000B0F1804F0ED0B0F1A04F0BD001240AE024
:1034E0000098012102F08CFD03E00198012102F017
:1034F00017FE04465CB126462868C043400117D435
:10350000286D98B1B0F5807F0BD001240FE0D5F87D
:10351000B420D8F8001021F0E0411143C8F80010A1
:10352000EAE70098012102F06BFD044674B12646DB
:103530002888C04300041ED4686FD0B1B0F1805F0A
:103540000DD0B0F1005F0FD0012413E02A6DDBF83D
:10355000001021F480711143CBF80010E8E73868BF
:1035600040F40030386004E00098012102F048FD8A
:10357000044674B126462868C043C00120D4A86C14
:10358000E0B1012810D0022813D0032816D001245E
:1035900015E06A6FD9F8001021F040511143C9F8C5
:1035A0000010E8E72C440258386840F400303860D6
:1035B00004E00098022102F023FD04466CB1264687
:1035C0002868C04340024DD4FA48016841F4807134
:1035D0000160FEF7D9FF82460EE0AA6CDBF800100E
:1035E00021F003011143CBF80010E9E7FEF7CCFF0F
:1035F000A0EB0A00642833D8EE480068C005F5D572
:103600007CBBDFF8B4A3B5F8B810DAF8000001F419
:10361000407100F44070884211D0DAF80010DAF8F6
:10362000002021F4407142F48032CAF80020DAF818
:10363000002022F48032CAF80020CAF80010D5F821
:10364000B800B0F5807F1AD1FEF79EFF029012E01D
:10365000FEF79AFF0299411A41F2883081420AD955
:10366000032426462878DFF850A3C043AAF11C0A99
:10367000C00721D03DE0DAF800008007E8D5D5F892
:10368000B810C1F301200328CC480DD0016821F403
:103690007C510160B5F8B820DAF80010C2F30B02D3
:1036A0001143CAF80010DDE7C54A036802EA1112A7
:1036B00023F47C511143ECE7D5F88000182816D08C
:1036C00005DCA0B1082808D0102804D10AE0202881
:1036D0000DD028280BD001240AE00098012102F027
:1036E0008FFC03E00198012102F01AFD044664B149
:1036F00026462878C04380071FD4E86F06281AD2D0
:10370000DFE800F0170D12171717D5F88020DAF848
:10371000001021F038011143CAF80010E9E70098C1
:10372000012102F06DFC03E00198012102F0F8FC98
:1037300004467CB100E0012426462878C0434007B7
:103740001FD4D5F89800062819D2DFE800F0160C2F
:1037500011161616EA6FDAF8001021F0070111436E
:10376000CAF80010E9E70098012102F049FC03E0E3
:103770000198012102F0D4FC0446A4B100E0012428
:1037800026462878C04380062BD4D5F89400B0F1A3
:10379000405F24D011DC10B3B0F1805F15D0B0F1E0
:1037A000005F10D116E0D5F89820D8F8001021F06D
:1037B00007011143C8F80010E3E7B0F1804F0ED0C5
:1037C000B0F1A04F0BD001240AE00098002102F0D4
:1037D00017FC03E00198022102F0A2FC044694B118
:1037E00026462878C04340062BD4D5F8A000B0F573
:1037F000406F24D011DC10B3B0F5806F15D0B0F558
:10380000006F10D116E0D5F89420DAF8001021F0FE
:10381000E0411143CAF80010E3E7B0F5805F0ED035
:10382000B0F5A05F0BD001240AE00098002102F05F
:10383000E7FB03E00198022102F072FC044694B118
:1038400026462878C04300062BD4D5F8A400B0F54E
:10385000C04F24D011DC10B3B0F5005F15D0B0F527
:10386000804F10D116E0D5F8A020D8F8001021F430
:10387000E0511143C8F80010E3E7B0F5004F0ED057
:10388000B0F5204F0BD001240AE00098002102F08F
:10389000B7FB03E00198022102F042FC044654B158
:1038A00026462878C04300071ED4D5F88800B0F516
:1038B000805F0AD00FE0D5F8A420D8F8001021F4DA
:1038C00060411143C8F80010EBE70198022102F0B3
:1038D00027FC00B10126D5F88820DAF8001021F481
:1038E00040511143CAF800102878C043C00613D4D1
:1038F000D5F89C00B0F5807F05D10198022102F037
:103900000FFC00B10126D5F89C20D8F8001021F456
:1039100040711143C8F800102868C043000316D452
:10392000D5F8A80038B1B0F5803F09D0B0F5003F18
:103930000BD001240AE00098002102F061FB03E0B3
:103940000198022102F0ECFB04468CB1264628685F
:10395000C043400322D4D5F88C00B0F5801F11D0AD
:10396000B0F5001F13D0B0F5401F15D0012414E0AE
:10397000D5F8A820D8F8001021F440311143C8F838
:103980000010E4E7386840F40030386004E0019843
:10399000012102F0C5FB0446A4B126462868C043B5
:1039A000C00325D4686DB8B1B0F5803F19D00124AB
:1039B0001DE00000004802587044025810440258AC
:1039C000CFFFFF00D5F88C20DAF8001021F4401169
:1039D0001143CAF80010E1E7386840F4003038605D
:1039E00004E00098022102F00BFB0446E4B12646F5
:1039F0002868C043800005D40198022102F090FBA2
:103A000000B101262868C04380031CD4D5F8840087
:103A1000B8B1B0F5807F10D0B0F5007F11D0B0F50F
:103A2000407F0ED001240DE06A6DDBF8001021F418
:103A300080311143CBF80010DAE7386840F40030E9
:103A40003860E4B326462868C043C00207D4AA6F92
:103A5000D9F8001021F000411143C9F8001028687E
:103A6000C043C00007D44A48D5F8BC20016821F4FF
:103A70008041114301602868C043800207D42A6F47
:103A8000D9F8001021F080711143C9F8001028689E
:103A9000C043400009D43E48016821F40041016060
:103AA0000168D5F8C020114301602868C04309D4DB
:103AB000AA6DDBF8001021F04051114300E016E040
:103AC000CBF800102868C043000208D4D5F8902035
:103AD000DAF8001021F440011143CAF800102879E7
:103AE0000024C04300F0010020430AD00FE0D5F8C5
:103AF0008420DAF8001021F440711143CAF8001054
:103B0000A1E70098002102F07BFA00B1064628796F
:103B1000C04300F00200204305D10098012102F0CB
:103B20006FFA00B106462879C04300F00400204334
:103B300005D10098022102F063FA00B10646287907
:103B4000C04300F00800204305D10198002102F095
:103B5000E7FA00B106462879C04300F01000204380
:103B600005D10198012102F0DBFA00B1064628795F
:103B7000C04300F02000044304D10198022102F068
:103B8000CFFA00B916B10120BDE8FE8F0020FBE797
:103B9000104402582DE9F05F04000F467ED0DFF894
:103BA0003882D8F8000000F00F00B8420CD2D8F8E4
:103BB000001021F00F013943C8F80010D8F80000B8
:103BC00000F00F00B84269D12078844D40070AD533
:103BD0002069296801F07001884204D9296821F020
:103BE00070010143296020787C4E361D00070AD5FC
:103BF0006069316801F07001884204D9316821F0B0
:103C00007001014331602078C0060AD5A06931688F
:103C100001F4E061884204D9316821F4E061014394
:103C200031602078DFF8B4B180060BF1080B0CD5B9
:103C3000E1695846DBF8002002F07002914204D995
:103C4000026822F070020A430260207880070AD5D9
:103C5000E068296801F00F01884204D9296821F041
:103C60000F01014329602078C0073ED05B49A2685C
:103C70002868183920F470601043286060680228B2
:103C800018D0032819D00968012819D0490700293C
:103C90004ADADFF848A1AAF1080A00E044E0DAF8BD
:103CA000002022F007020243CAF80020FEF76CFC55
:103CB000814612E009688903E9E709688901E6E7B6
:103CC000C905E4E7FEF760FCA0EB090141F288308A
:103CD000814202D90320BDE8F09F6168DAF8000054
:103CE00000F03800B0EBC10FECD1207880070AD586
:103CF000E068296801F00F01884204D2296821F0A8
:103D00000F0101432960D8F80010404601F00F016F
:103D1000B9420BD9016821F00F01394301600068F5
:103D200000F00F00B84201D00120D4E7207840070E
:103D30000AD52069296801F07001884204D22968F7
:103D400021F0700101432960207800070AD56069DD
:103D5000316801F07001884204D2316821F07001AD
:103D6000014331602078C0060AD5A069316801F4AA
:103D7000E061884204D2316821F4E061014331609E
:103D8000207880060CD5E1695846DBF8002002F067
:103D90007002914204D2026822F070020A4302606B
:103DA00000F06CF80E492A682B68C2F3032203F076
:103DB0000F038A5CC95C02F01F0201F01F01D040B2
:103DC000084A20FA01F111600749086007480068B5
:103DD000BDE8F05FFEF764BE0020005218440258B0
:103DE000E01A0108B4070024B0070024A807002443
:103DF00030B500F043F80B4A0B490C4B15681468BA
:103E0000C5F3032204F00F048A5C095D02F01F026F
:103E100001F01F01D040064A20FA01F1196010603C
:103E2000084630BD18440258E01A0108B4070024BF
:103E3000B007002400B5FFF7DBFF05490968054A14
:103E4000C1F30211515C01F01F01C84000BD000028
:103E50001C440258E01A010800B5FFF7C9FF0549E4
:103E60000968054AC1F30221515C01F01F01C840F5
:103E700000BD00001C440258E01A0108454970B515
:103E800045480968434B103B11F0380208D0011136
:103E9000082A03D0102A0BD0182A0BD0084670BD70
:103EA00019688906FBD51968C1F3C101C84070BD06
:103EB0003A4870BD3749374D18310C1D24350A6812
:103EC000096826682D6802F0030406F00102C1F3B8
:103ED0000511C5F3CC0515FB02F200EE102AB8EE71
:103EE000400AE9B32F4ADFED2E0AB7EE001A6CB193
:103EF000DFED2D1A012C01D0022C43D002EE101A56
:103F00001068F8EE422A81EEA22A1EE01C68A40680
:103F100011D51B6801EE901A1168C3F3C103F8EEC6
:103F2000612AD84001EE900AC1F30800F8EE611A48
:103F300081EEA22A0BE001EE901ADFED1C2A00BFF1
:103F4000F8EE611A106882EEA12AC0F3080001EEB3
:103F5000900AF8EE611A40EE201A31EE810A00E074
:103F600015E022EE000A1068C0F34620401C00EE67
:103F7000900AF8EE600A80EE201ABCEEC10A10EE3C
:103F8000100A70BD01EE901ADFED092AD8E7002073
:103F900070BD0000104402580090D00340787D01AD
:103FA00000000039304402580024744A0024744C44
:103FB00020BCBE4B2DE9F05F04007DD0FF4F207880
:103FC000FE4D1837DFF8F493103DC00748D0D9F8FC
:103FD0000000396800F03800102815D0182803D1E7
:103FE00001F0030002280FD06068B0F5803F12D0C6
:103FF00010B1B0F5A02F18D0286820F480302860C8
:10400000286820F4802009E02868800328D56068AB
:104010000028D2D024E0286840F48030286060680E
:1040200088B1FEF7B1FA064609E0286840F480201E
:104030002860F0E7FEF7A8FA801B64286FD828688C
:104040008003F7D50CE0FEF79FFA064605E000BFB7
:10405000FEF79AFA801B6428F0D828688003F7D40A
:10406000207841F20308D54E0C3E800769D5D9F877
:104070000000396810F038000ED0182801D18807E8
:104080000AD0E06890B3296821F019010143296042
:10409000FEF77AFA824631E02868400702D5E068E8
:1040A00000288AD0E168286820F0190008432860B9
:1040B000FEF76AFA824607E0DFE000BFFEF764FA27
:1040C000A0EB0A000228B9D828684007F6D500BF3F
:1040D000FEF754FA40451BD82069402812D03168B9
:1040E00021F47C3141EA003030602AE018E000BF62
:1040F000FEF74AFAA0EB0A0002289FD8286840077A
:10410000F6D5E5E7306820F47C3040F40030EBE78A
:10411000207C316821F0FE4141EA0060E4E70DE1D6
:10412000286820F001002860FEF72EFA824605E09C
:10413000FEF72AFAA0EB0A0002288DD8286840076B
:10414000F6D42078C0065DD5D9F80000DFF86CB24F
:10415000396800F03800ABF1040B082810D018289B
:1041600003D101F0030001280AD0E0690028286883
:1041700038D040F080002860FEF706FA824623E03F
:104180002868C00523D5E069802876D11FE0206A21
:10419000202821D0316821F0F84141EA8060306068
:1041A00030E000BF94F82010DBF8002022F07C52B1
:1041B00042EA0161CBF8001024E000BFFEF7E4F909
:1041C000A0EB0A00022898D82868C005F6D5FEF7AB
:1041D000D5F94045E6D8DAE7306820F0F84040F0FD
:1041E0008040DCE720F080002860FEF7CDF906462D
:1041F00005E000BFFEF7C8F9801B02289DD828689B
:10420000C005F7D42078000729D56C48616964306F
:1042100000298046016811D041F001010160FEF7DC
:10422000B3F9064605E000BFFEF7AEF9801B022891
:10423000C9D8D8F800008007F6D510E021F00101B8
:104240000160FEF7A1F9064605E000BFFEF79CF904
:10425000801B022872D8D8F800008007F6D4207896
:10426000800623D5A0690028286810D040F480502B
:104270002860FEF789F9064605E036E1FEF784F985
:10428000801B02285AD828688004F7D50EE020F455
:1042900080502860FEF778F9064604E0FEF774F9CE
:1042A000801B02284AD828688004F7D42078400769
:1042B0004FD5DFF80C81D8F8001041F48071C8F8B0
:1042C0000010FEF761F9064605E000BFFEF75CF955
:1042D000801B642832D8D8F80000C005F6D5374EC8
:1042E000A068603601280AD008B1052813D03068CC
:1042F00020F001003060306820F0040002E03068F7
:1043000040F001003060A06841F2883A90B1FEF7B9
:104310003BF980460AE0306840F004003060EEE788
:10432000FEF732F9A0EB0801514507D83068800745
:10433000F6D50EE0FEF728F9804607E084E000BFDE
:10434000FEF722F9A0EB080151457DD830688007BF
:10435000F6D4606AB0B3DFF86480D9F8001008F1D1
:1043600020084FF6F87B08F10409C1F3C2010329C4
:10437000A8F1040A69D00228286820F0807028601B
:1043800003D0FEF701F9044684E0FEF7FDF8064687
:1043900005E000BFFEF7F8F8801B022877D82868F0
:1043A0008001F7D4E26A40F2F331386854F8283FCC
:1043B000884340EA02101843386004E01044025871
:1043C00000480258B5E0217B434622894FF4FE0C99
:1043D000208A4FF0FE474902267D521E401EA1F55D
:1043E0000071C2F308088AB2761E0CEA004042EA65
:1043F00008020243504607EA06610A431A60DAF8E7
:10440000002022F00102CAF80020D9F80020266A14
:1044100022EA0B0242EAC602C9F80020DAF80010CC
:10442000A26921F00C011143CAF800100168E26989
:1044300021F0020111430160016841F48031016003
:10444000016841F4003101E021E027E001600168EA
:1044500041F480210160016841F001010160286898
:1044600040F080702860FEF78FF8044605E000BF3A
:10447000FEF78AF8001B022809D828688001F7D5C2
:1044800057E000BFFEF780F8001B022802D9032086
:10449000BDE8F09F28688001F4D44AE0396801281B
:1044A000D8F8000021D0A26A01F0030393421CD186
:1044B000E26AC1F305118A4217D1216BC0F30802E9
:1044C000491E8A4211D1616BC0F34622491E9142B6
:1044D0000BD1A16BC0F30642491E914205D1E16B9D
:1044E000C0F30660491E814201D00120D0E7A16CD3
:1044F0004E46D9F80000C0F3CC00814219D0DAF85A
:104500000000554620F00100CAF80000FEF73CF814
:104510004FEA0007FEF738F8B842FBD0A26C3068CB
:1045200020EA0B0040EAC2003060286840F0010039
:1045300028600020ACE7000070B504000D4603D0F1
:1045400094F82C0010B107E0012070BD002084F821
:104550002D00204600F018F8022084F82C00206876
:10456000211DFCF747FED4E900022946FCF794FE22
:1045700004480121026842F00042026084F82C10D5
:10458000002070BD00400052704710B5044690F8FE
:104590002C00022804D094F82C00012801D001201E
:1045A00010BD022084F82C002068FCF758FE012082
:1045B00084F82C00002010BD70B5044690F82C0043
:1045C0000D46022804D0012803D0052801D001207F
:1045D00070BD022084F82C002068FCF749FE286892
:1045E000022805D05FF0010084F82C00002070BD87
:1045F0000520F9E7401EB0F1807F10B501D30120FE
:1046000010BD4FF0E02460610F21601702F000FD43
:104610000020A0610721216110BD30B590F8841001
:10462000012918D0012280F884202421C0F88810A4
:104630000022202401680B680D6823F0005325F048
:1046400001050D60426601680B60C0F8884080F883
:104650008420104630BD022030BD70B5044690F86D
:10466000840001281DD0012284F884202420C4F86D
:10467000880020680568026822F001020260206854
:10468000826822F060620A438260204601F06CFF7B
:104690002268202100201560C4F8881084F8840066
:1046A00070BD022070BD70B5044690F884000128EA
:1046B0001DD0012284F884202420C4F888002068BA
:1046C0000568026822F0010202602068826822F018
:1046D00060420A438260204601F046FF22682021A2
:1046E00000201560C4F8881084F8840070BD022092
:1046F00070BD10B5040003D0D4F8880010B107E0F5
:10470000012010BD002084F88400204600F026F827
:104710002420C4F888002068016821F001010160AC
:10472000A06A10B1204601F041FF204602F022F8B5
:104730000128E6D02068416821F49041416020685A
:10474000816821F02A0181602068016841F001013F
:1047500001602046BDE8104001F08CBF10B5B8B034
:104760000446142132A8FBF756FFC8216846FBF720
:1047700052FF1949206888422BD100202090012146
:104780000446CDE900106846FEF714FD08B1FCF7B9
:104790002FFD1248016841F010010160006800F02F
:1047A000100037900D481038016841F00101016098
:1047B000006832AB022100F0010037904FF4C06076
:1047C000072283E81300064832A9CDE93542FDF7F8
:1047D000B9FD38B010BD000000100140F04402588F
:1047E00000000258FEE700001F482DE9F041016873
:1047F00086B041F008010160016801F008010591EF
:10480000016841F008010160006802261224DFF807
:104810005C8000F008000590002569460427F0023E
:104820008DE8F1004046FDF78DFD300369468DE8C7
:10483000F1004046FDF786FD0B481430016841F059
:1048400080010160006800F080000590064844384F
:10485000016841F080010160016821F08001016080
:1048600006B0BDE8F0810000E0440258000C025898
:104870003EB54FF47A75069C8DE8380013460A461B
:1048800001460448FDF776FF002801D06FF00700CD
:104890003EBD0000245100243EB54FF47A75069CBD
:1048A0008DE8380013460A4601460448FEF714F81E
:1048B000002801D06FF007003EBD00002451002405
:1048C0002DE9F04F01EB41042B4A04EBC1042B4BC3
:1048D0004FF0100B02EB840103EB5003B3FBF0F33A
:1048E000D1E90942CD68086A2544D1E90461D71CA1
:1048F000341A323D121D07FB1355A4F5827402FBD6
:104900001349002D00EB010A00DC0025B9F1000F6E
:1049100001DC4FF000090020441C0022511C6143BF
:104920005943514520D3002101FB04F65E43AE42BA
:1049300017D34E4515D8584513D0DFF844E08346C9
:10494000DFF84080DEF8046006EB8607761C08EB93
:10495000870C48F82700802ECCE90121CEF80460AE
:1049600008D2491C1029DFD3521C102AD6D3401C70
:104970001028D1D3BDE8F08F781C010800CA9A3BFB
:1049800054080024244700242DE9F04F3F4C88B000
:1049900001EB41033E4A03EBC1014FF0FF330393A8
:1049A00002EB5005B5FBF0FA54F8213004EB81011D
:1049B00032264FF0000902EB5304B4FBF3F00290EF
:1049C0008B6AD1E9014503FB0AF3B2FBF5FBCDE9A4
:1049D0000003B2FBF4F007902E48406806904EE0CA
:1049E000019809EB8902059200EB4A0C2A4850F81D
:1049F0002230002288695B1C049003FB0AF3501CE0
:104A000000FB036000EB0C040498A04232D2019832
:104A1000A51B2D1ABAEB950F2CD2D1E908750020F1
:104A200007EB050E451C05FB036505EB0C0704EBC6
:104A300007080EEB08055D4519D3DDF81C804545D8
:104A400015D8D1F81C80B84511D8BA450FD2029FAD
:104A5000ED1B00D56D42009FBD4208D20095059D1B
:104A60000D4FCDF80C9007EB8505C5E90302401CFE
:104A7000FF28D7D9521CFF2AC1D909F10109069A8A
:104A80009145ADD3039808B0BDE8F08F781C0108BC
:104A900000CA9A3B540800242447002401688A690C
:104AA000D243920701D400228A6200688169C94317
:104AB000C90703D0816941F001018161704700009D
:104AC00070B506004FF0000533D071B31A480024CA
:104AD00004EB440202EBC40200EB820253688B42F7
:104AE00024D892688A4221D321463046FFF7E8FE57
:104AF00021463046FFF748FF80281AD20F4900EBC5
:104B0000800201EB820011F822400179027A01F063
:104B10000F05037B2407007C02F00F0144EA0552D5
:104B200042EA014141EA0325054302E0641C022CEC
:104B3000CED9284670BD0000781C01082447002407
:104B40002DE9F047044600680026894617464FF0D5
:104B5000200835468169C90641D51021C1612FE081
:104B6000B9F1FF3F2CD0FDF70FFDC11B494502D81D
:104B7000B9F1000F24D12068426894F8421083698B
:104B800002F48042DB431B0415D4B2F5804F12D0EF
:104B9000202910D0416841F480414160FDF7F4FCC8
:104BA000074608E0FDF7F0FCC01B192803D90126D1
:104BB00045F0200504E020688069C0438006F1D4F8
:104BC00020688069C043800602D5002EC8D003E06B
:104BD00016B92168C1F81C80012645F0040521683A
:104BE0008869C20505D54FF48072CA6145F0010598
:104BF000012641050AD5216880054FF4806245F001
:104C00000805CA614FF0010602D40AE0800507D505
:104C1000206801264FF4007145F00205C16100E0F3
:104C20008EB12046FFF73AFF20680021074F436806
:104C30003B404360606C2843606484F8418084F8A2
:104C4000421084F840103046BDE8F08700E800FECE
:104C50002DE9F843174604461548DAB2DDE908980D
:104C60001E4600900023204600F056F84246494672
:104C7000204600F0D3F8B8B9012EFDB208D0206864
:104C8000390A816242464946204600F0C7F858B9C1
:104C900020688562002240214B462046CDF80080E6
:104CA00000F052F8002800D00120BDE8F883000091
:104CB000002000802DE9F8430446164817461E469A
:104CC000DAB20090C3022046DDE9089800F024F82B
:104CD00042464946204600F0A1F8B8B9012EFDB27F
:104CE00008D02068390A816242464946204600F0D1
:104CF00095F858B920688562002280214B462046ED
:104D0000CDF8008000F020F8002800D00120BDE898
:104D1000F88300000020008070B50068C1F309012D
:104D200041EA0241074D049C19434FF480664268F2
:104D3000214306EA54532B439A4321F000410A438E
:104D4000426070BDFF63FF032DE9F0411D46174629
:104D50000E460446DDF8188028E0424629462046E3
:104D6000FFF7EEFE10B10120BDE8F081681C1DD0F8
:104D7000FDF70AFCA0EB0800A84200D8B5B92068EE
:104D8000806936EA00000FD00020B8420ED1626C74
:104D9000002084F84000202142F02002626484F860
:104DA000411084F84200DEE70120EEE720688069C8
:104DB00036EA000004D00020B842CED00020D3E76D
:104DC0000120F9E770B516460D4604461FE032464D
:104DD00029462046FFF7B4FE08B1012070BDFDF75B
:104DE000D3FB801BA84200D88DB920688069C043DE
:104DF00080060CD5626C002084F84000202142F02F
:104E00002002626484F8411084F84200E5E72068DB
:104E10008069C0438006DAD4002070BD70B51646A4
:104E20000D46044621E0324629462046FFF788FE1B
:104E300008B1012070BD681C17D0FDF7A5FB801BD1
:104E4000A84200D88DB920688069C04380070CD57E
:104E5000626C002084F84000202142F0200262644D
:104E600084F8411084F84200E3E720688069C04379
:104E70008007D8D4002070BD084A012310B5002453
:104E8000C2E90031C2E9023404494FF6FF72FFF76C
:104E900093FB002800D0601E10BD000014470024C2
:104EA0002DE9F0410C46096880464FF0FF36FFF7C8
:104EB000E3FFF0B90127FDF767FB0546FDF764FB4B
:104EC000401BB842FAD32168404600F037F880B959
:104ED000D4E90012404600F045F850B9214640465A
:104EE00000F00AF828B9A168404600F04DF800B972
:104EF00000263046BDE8F0812DE9F0410E4A01253B
:104F0000D1E9033ED1E90547CE694FF0040C43EAED
:104F10000E03C2F800C03C43096823433343D36007
:104F2000C2E9011504494FF6FF72FFF745FB00285F
:104F300000D0A81EBDE8F08114470024084A0023D1
:104F400070B5012402251560D360C2E9011404493B
:104F50004FF6FF72FFF730FB002800D0A01E70BD97
:104F600014470024074B70B5082404C300254FF6EE
:104F7000FF7283E83200191FFFF71EFB002800D0E4
:104F8000681E70BD1447002410B5FFF7FEFA002814
:104F900001D04FF0FF3010BD0221002010B5FBF70B
:104FA000F5FC10BD0421002010B5FBF7EFFC10BD8F
:104FB0000821002010B5FBF7E9FC10BD01210020FD
:104FC00010B5FBF7E3FC10BD1021002010B5FBF776
:104FD000DDFC10BDF8B5164801F0B4FF154C0021FA
:104FE0004FF44876084670233246009401F074FF6F
:104FF0002516284601F0FCFF70213246002000955E
:105000004FF4B87301F068FF204601F093FF0120D0
:1050100009A101F02DFE134801F094FF124904206C
:1050200001F026FEBDE8F840052010A101F020BEE9
:1050300078080024FF0000FF20202020204C43445B
:105040005F44534920446973706C617920616E64D8
:1050500020546F75636820537265656E20546573C4
:105060007400000080080024A4460108666F7220C6
:10507000646973706C617920616E6420666F722060
:1050800064726177207769746820546F7563682053
:1050900053637265656E202020000000024800689E
:1050A0000860002070470000EC520024024840686D
:1050B0000860002070470000EC5200242DE9F04108
:1050C00000208AB0FBF7EAFD00F0A8F84D484FF049
:1050D000005300220525144600F134060360A02386
:1050E000426002214FF40068C0E90A53426413236E
:1050F0000264016386E80A01FEF75CF8424F280764
:1051000038603846FCF759FD3E48012664210C38CA
:105110008460C0E900153B490420C7E902060C3948
:105120003846FCF721FE37484FF448716C3804606C
:10513000446184614560C461C0E9021404610146B0
:105140000462C0E909463846FCF71EFC2D4D3302C7
:10515000403D19015E002B609F006E608801AF60CA
:105160004A008B000E014F01C5E90381410005F1A2
:105170001408C5E9090188E8CC0023482946FCF752
:105180008BFC00F03BF92048FCF7EFFF2320009058
:105190000A21019002900390CDE904411A48694622
:1051A000FCF7C9FC194806A9099019480790194845
:1051B000ADF818400890A5F14C0000F001FF164929
:1051C000A5F14C0001224860772100F0A1FB2C6082
:1051D00029466C60AC60EC602C616C61AC61EC6188
:1051E0002C626C620848AC62FCF756FC064804214D
:1051F000FCF78CFC04480121FCF726FD0AB00020D6
:10520000BDE8F081B8090024C051002491080008CD
:10521000511000082D10000890070024284908B5F7
:10522000086840F008000860086800F00800009076
:1052300023485838026842F008020260026822F0EF
:10524000080202601E4A103A136843F0100313600C
:10525000126802F010020092194A683A136843F08B
:1052600010031360136823F0100313600A6842F000
:1052700010020A60096801F010010091016841F014
:1052800010010160016821F0100101600F22092165
:105290005820FDF7C5FD5820FDF7B4FD0F22092168
:1052A0005A20FDF7BDFD5A20FDF7ACFD0F22092164
:1052B0007B20FDF7B5FDBDE808407B20FDF7A2BDD2
:1052C000E44402582DE9F843C0EBC00088461B496E
:1052D0001C46089B154601EB8000C068022829D0B7
:1052E000002117480022DFF85CC0FF274FF480360A
:1052F000C0E902120765C0E912324264C0E900C683
:10530000FCF75CFA002817D10D480121FCF7F2F9EF
:10531000002811D101200090094823462A46414621
:10532000FCF718FB002807D1BDE8F84304483221F8
:10533000FCF789BA0221D4E7BDE8F883EC520024D7
:10534000DC51002400100052F8B5C0EBC0000F463D
:1053500027491646DDE9062401EB80001D46C0689A
:10536000022822D05FF0000122484FF4403C224B3B
:10537000C0E90212C0E9003CFCF720FA002836D14F
:105380001C480121FCF7B6F9002830D119483346F2
:105390003A4621460095FCF7DDFA002827D1BDE802
:1053A000F84014481921FCF74EBAC4F34513C4F36E
:1053B000C42003EB430CC0EB401004F01F0400EBCF
:1053C000001017300CEB03232133C4EB44144FEAD5
:1053D000901C9809022104EB041417344FEA0C4383
:1053E00043EA002040EA941040F07F44BCE7F8BD57
:1053F000EC520024DC510024001000522DE9F04151
:10540000154C144D20462560FDF793FB022240F217
:1054100022360121616100204FF4F173C4E90612C4
:1054200004F1280140F2E31C771CC4E9082681E856
:10543000881084F8340084F8350084F83600606001
:10544000A060E060256020612046BDE8F041FDF7E6
:10545000A5BB000000100050445200242DE9FE4F6F
:1054600081460068882493468D888C2204EBCB17F4
:105470008A46C3689421BE46C459C3F30B432B44E8
:1054800004F470441F04019702EBCB1240F80E4065
:1054900001EBCB13DAF800709C214FF0AC0C01EB60
:1054A000CB1440F2077102910CEBCB11D9F800C07C
:1054B00098250020CDF800C0A02605EBCB15DCF820
:1054C0000CC006EBCB16CCF30B4C0CF1010C07EB2C
:1054D0000C08DDF800C0019F48EA07084CF80E8070
:1054E000D9F80070BAF80CC0B846FF68C7F30A07CD
:1054F00067444FEA074E58F8027007F4704C48F8BA
:1055000002C0D9F800C0DAF80870DCF80C80C8F3E3
:105510000A0808F10108B84448EA0E084CF802806D
:10552000D9F80020D75827F00707D750D9F80070CE
:10553000DAF81020FA509AF831209AF818304FEA29
:10554000022C9AF83220120442EA0362D9F80030A1
:105550001F5918519AF8303043EA0C031343D9F815
:1055600000201351D9F80020535923F0FF03535161
:10557000D9F80020DAF814305351D9F800209359A3
:10558000029CA3439351D9F80030DAE9072422435F
:105590009A51D9F8002053585050D9F80020DAF821
:1055A00024005050DAF81000C8B301283AD004287B
:1055B0003AD0022838D0032836D0072834D001202A
:1055C000D9F80030B02505EBCB11B42284245D5806
:1055D00002EBCB1205F0E0255D50DAE9003504EB73
:1055E000CB14EB1ABAF8285043434543D9F80000CE
:1055F000DB1D43EA05434350D9F8000081586FF39F
:105600000A018150D9F80000DAF82C108150D9F83D
:105610000000015941F001010151BDE8FE8FFFE793
:105620000420CDE70320CBE70220C9E770B503686B
:10563000D0E903121143D960D0E90514D0E9072558
:10564000436A21432A43058D1143234AD0E90B467F
:105650001943836821430468314302EB85421143B7
:105660001943216141684FF08044A14204D101688F
:105670000A6942F040420A61026800215161426BAE
:10568000002A08DA0268536943F480235361828E4A
:105690000368524200E0036892B21A62836B0268A8
:1056A000002B08DA536943F4002353610268038F27
:1056B000156A5B4200E0156A45EA034313624268DB
:1056C000A24203D00368D2B29A6201E002689162FA
:1056D0000068416270BD00000000FCFF7FB500243F
:1056E0000094019402940394FDF75EFB01258DF86C
:1056F0000C501F208DF8080087218DF809108DF8B7
:105700000D5068468DF800508DF80A408DF80E4017
:105710008DF8014001948DF80B408DF80F40FDF796
:1057200015FB18218DF808108DF80C404FF05040F3
:105730008DF8094003228DF80D408DF8015001903D
:1057400068468DF80B208DF80E50FDF7FFFA042007
:10575000FDF738FB7FBD00000A480021084B0122FD
:1057600010B5036001714171416102628161FBF713
:1057700071FF002803D0BDE81040FBF739BD10BD14
:10578000004C02585046002430B587B014216846BA
:10579000FAF741FF1248016841F001010160016818
:1057A00001F001010591016841F480710160006818
:1057B0004FF480540B4D002200F480702146059078
:1057C0002846FCF7D5FE002100940120CDE9010117
:1057D000284603916946FCF7B5FD07B030BD0000CF
:1057E000E04402580020025870B50446002001220F
:1057F0000546C4E90110C4E903206061A061E061CD
:1058000020622046FCF756FF20B900212046FCF715
:10581000DBFE08B1012505E000212046FCF700FF72
:105820000028F7D1284670BDF0B50126144F042397
:105830004FF0400C87B00221C0E900762025C0E976
:1058400002630561CD028E02C0F814C00022C0E9D7
:1058500008650C4D4FF4C0770724C0E90672AA62B0
:10586000CDE900140293CDE9034105910691694603
:10587000FEF762FE002800D0012007B0F0BD000056
:1058800040410052005400241848002110B5164C25
:105890000C224FF4E1330460C0E90131C160C0E97A
:1058A00004128161C161016241628162FEF721FFE0
:1058B00008B1FBF79DFC0D480021FEF7F4FE08B18E
:1058C000FBF796FC09480021FEF7C7FE08B1FBF77D
:1058D0008FFC0648FEF7A1FE002803D0BDE810406B
:1058E000FBF786BC10BD0000001001407446002488
:1058F000FEE7FEE770B50546C0680E4680470446E1
:10590000E8688047001BB042FAD3002070BD000059
:105910002DE9FF5F002391460F460646FE4C1030EE
:1059200019460090621C03F0F3FC0323054600981F
:10593000FF21A4F5877203F0EBFC0023A21C19469B
:105940000544009803F0E4FC0223FF21054400987D
:10595000A4F58A7203F0DCFC0023A21C194605445E
:10596000009803F0D5FC0023E21CC42105440098F4
:1059700003F0CEFC054430460A21FFF7BBFF0023AD
:105980000098221D194603F0C3FC0023621DC421A8
:105990000544009803F0BCFC054430460A21FFF79B
:1059A000A9FF00230098A21D194603F0B1FC0023B3
:1059B000E21DC5210544009803F0AAFC002305441C
:1059C000009804F10802194603F0A2FC04F1090250
:1059D00000239046C5210544009803F099FC00235C
:1059E0000544009804F10A02194603F091FC0023D3
:1059F000C0210544009804F10B0203F089FC002348
:105A0000621C19460544009803F082FC0023D9214A
:105A10000544009804F10C0203F07AFC00230544CD
:105A2000009804F10D021946039203F071FC002363
:105A3000C1210544009804F10E0203F069FC002323
:105A400004F10F02194605440098924603F060FCE9
:105A50000023C1210544009804F1100203F058FC12
:105A600000230544009804F11102194603F050FC8C
:105A70000023C5210544009804F1120203F048FCFC
:105A800000230544009804F11302194603F040FC7A
:105A900000234246C5210544009803F039FC002349
:105AA000621C19460544009803F032FC0223D821F9
:105AB00005440098A4F5897203F02AFC00230544EC
:105AC000009804F11402194603F022FC0023C521BA
:105AD0000544009804F1150203F01AFC0023054464
